S00E0000427574746F6E2E737265639A
S11300000C942A000C943C000C943C000C943C008E
S11300100C943C000C943C000C943C000C943C006C
S11300200C943C000C943C000C943C000C943C005C
S11300300C943C000C943C000C943C000C943C004C
S11300400C943C000C943C000C943C000C943C003C
S11300500C943C0011241FBECFE5D4E0DEBFCDBF1D
S113006020E0A0E6B0E001C01D92A236B207E1F79D
S11300700E943E000C9466000C9400008FEF8ABB33
S11300801BBA17BA81E088BB41E050E0B099FECFBB
S1130090B09BFECF2091600030916100C9010196B0
S11300A09093610080936000099754F43BB3CA01B4
S11300B002C0880F991F2A95E2F7832B8BBBE6CFEA
S11300C010926100109260001BBAE0CFF894FFCF49
S9030000FC
