:100000000C942A000C9434000C9434000C943400AA
:100010000C9434000C9434000C9434000C94340090
:100020000C9434000C9434000C9434000C94340080
:100030000C9434000C9434000C9434000C94340070
:100040000C9434000C9434000C9434000C94340060
:100050000C94340011241FBECFE5D4E0DEBFCDBF29
:100060000E943A000C9453000C940000909A08955A
:10007000909808958FEF81BB0E9436002FEF89E69C
:1000800098E1215080409040E1F700C000000E94BC
:1000900038002FEF89E698E1215080409040E1F749
:0A00A00000C00000E9CFF894FFCF84
:00000001FF
