S010000044435F4D4F544F522E737265639D
S11300000C942A000C943C000C943C000C943C008E
S11300100C943C000C943C000C943C000C943C006C
S11300200C943C000C943C000C943C000C943C005C
S11300300C943C000C943C000C943C000C943C004C
S11300400C943C000C943C000C943C000C943C003C
S11300500C943C0011241FBECFE5D4E0DEBFCDBF1D
S113006020E0A0E6B0E001C01D92A036B207E1F79F
S11300700E9454000C946A000C9400001ABA87E899
S113008086B980E487B908958770806487B9369A01
S1130090349BFECF349A8FEC97E00197F1F700C0C0
S11300A0000084B195B108958FEF84BBBB9A0E9480
S11300B03E0012BE8BE683BFC1E0C5BB80E00E9458
S11300C0440099230CF40396959587959595879507
S10B00D08CBFF3CFF894FFCFBD
S9030000FC
