:100000000C942A000C943F000C943F000C943F0089
:100010000C943F000C943F000C943F000C943F0064
:100020000C943F000C943F000C943F000C943F0054
:100030000C943F000C943F000C943F000C943F0044
:100040000C943F000C943F000C943F000C943F0034
:100050000C943F0011241FBECFE5D4E0DEBFCDBF1E
:1000600012E0A0E6B0E0ECEEF6E002C005900D92E2
:10007000A235B107D9F70E9434020C9474030C9492
:1000800000008BBBA898A998AA9A82E08A95F1F7FC
:1000900000C0AA9882E08A95F1F700C008958BBB52
:1000A000A89AA998AA9A82E08A95F1F700C0AA981E
:1000B00082E08A95F1F700C008958FEF8ABB84BB78
:1000C00085B3886385BB8FE39FE10197F1F700C09B
:1000D00000008EE30E94410080E40E94410088EB12
:1000E0000E94410080EC0E9441008FE30E94410089
:1000F00008951F93CF93DF9385B3886185BB18EB79
:10010000812F0E944100C0E4D0E080E00E944F00B7
:100110002197D9F71F5F103C99F780E40E944100B6
:1001200088EB0E944100DF91CF911F9108952F929B
:100130003F924F925F926F927F928F929F92AF9277
:10014000BF92CF92DF92EF92FF920F931F93CF93C4
:10015000DF9300D000D000D0CDB7DEB78B01E82E02
:10016000F12CC70188549F4F9A838983AB9AAC982E
:100170000E944100F8019081992309F459C1222479
:1001800033242E183F083694322C22243794279497
:10019000F5E02F1AFCEF3F0A612C512C412C0F2E59
:1001A000FFE37F2EF02DE12CF12C49815A819A0139
:1001B00040E050E029833A834B835C8304C02E14D3
:1001C0003F0408F435C1903209F44FC081E090E05B
:1001D0009E838D83CD80DE80CE0CDF1C20E030E05E
:1001E00040E05FE3662D752D842D972D0E9444021B
:1001F000A62EB72E982E892E0E94B0027695762FC5
:10020000662777956795C616D70629F5ED81FE8195
:10021000359759F180E40E94410085B3F8E08F27BB
:1002200085BB85B320E1822785BB69817A818B817B
:100230009C810E94E602262D352D442D572D0E94CB
:1002400044020E94B702862F0E9441006A2C5B2C58
:10025000492C782C76014D815E814F5F5F4F5E8324
:100260004D834630510509F0B5CF2E143F0408F4F4
:10027000DFC0F8018081803209F053C067011E821F
:100280001D82F801808190E080979C01220F331F2E
:10029000220F331FF901E80FF91FE05AFF4F2D819C
:1002A0003E81E20FF31F80810E944F003FEFC31A8F
:1002B000D30AC6018F739927892B39F585B348E096
:1002C000842785BB85B350E1852785BB69817A8109
:1002D0008B819C810E94E602262D352D442D572DC1
:1002E0000E9444020E94B702862F0E94410020E033
:1002F00030E040E05FE3662D752D842D972D0E9440
:100300004402662E572E482E792E8D819E810196AD
:100310009E838D83059709F0B4CF95E0E90EF11C1B
:1003200081C067011E821D82F801808190E0809764
:100330009C01220F331F220F331FF901E80FF91F11
:10034000E05AFF4F2D813E81E20FF31F80810E9412
:100350004F003FEFC31AD30AC6018F739927892B29
:1003600039F585B348E0842785BB85B350E18527FF
:1003700085BB69817A818B819C810E94E602262D52
:10038000352D442D572D0E9444020E94B702862F1E
:100390000E94410020E030E040E05FE3662D752DD3
:1003A000842D972D0E944402662E572E482E792EBA
:1003B0008D819E8101969E838D83059709F0B4CF30
:1003C00080E00E944F0096E0E90EF11CC7018F7398
:1003D0009927892B39F585B3E8E08E2785BB85B34E
:1003E000F0E18F2785BB69817A818B819C810E9496
:1003F000E602262D352D442D572D0E9444020E94E1
:10040000B702862F0E94410020E030E040E05FE329
:10041000662D752D842D972D0E944402662E572E31
:10042000482E792E0F5F1F4FF80190819111C7CE92
:1004300080E40E94410026960FB6F894DEBF0FBEFE
:10044000CDBFDF91CF911F910F91FF90EF90DF9083
:10045000CF90BF90AF909F908F907F906F905F9064
:100460004F903F902F9008950E945D000E94790068
:1004700060E472E080E00E94970069E472E081E04D
:100480000E949700FFCF5058BB27AA270E945B020B
:100490000C943A030E942C0338F00E94330320F09E
:1004A00039F49F3F19F426F40C9429030EF4E095D7
:1004B000E7FB0C942303E92F0E944B0358F3BA1770
:1004C000620773078407950720F079F4A6F50C946A
:1004D0006D030EF4E0950B2EBA2FA02D0B01B90180
:1004E00090010C01CA01A0011124FF27591B99F0AA
:1004F000593F50F4503E68F11A16F040A22F232FB6
:10050000342F4427585FF3CF469537952795A79505
:10051000F0405395C9F77EF41F16BA0B620B730BAC
:10052000840BBAF09150A1F0FF0FBB1F661F771F1D
:10053000881FC2F70EC0BA0F621F731F841F48F4D2
:10054000879577956795B795F7959E3F08F0B0CF5B
:100550009395880F08F09927EE0F97958795089542
:100560000E94B7026894B1110C946E0308950E9422
:10057000530388F09F5798F0B92F9927B751B0F0DF
:10058000E1F0660F771F881F991F1AF0BA95C9F717
:1005900014C0B13091F00E946D03B1E008950C9445
:1005A0006D03672F782F8827B85F39F0B93FCCF3F8
:1005B000869577956795B395D9F73EF49095809594
:1005C000709561957F4F8F4F9F4F0895E89409C0B4
:1005D00097FB3EF490958095709561957F4F8F4F76
:1005E0009F4F9923A9F0F92F96E9BB279395F6958C
:1005F000879577956795B795F111F8CFFAF4BB0F0A
:1006000011F460FF1BC06F5F7F4F8F4F9F4F16C06D
:10061000882311F096E911C0772321F09EE8872FF7
:10062000762F05C0662371F096E8862F70E060E0B3
:100630002AF09A95660F771F881FDAF7880F96952C
:10064000879597F9089597F99F6780E870E060E0D3
:1006500008959FEF80EC089500240A94161617065B
:1006600018060906089500240A94121613061406A3
:1006700005060895092E0394000C11F4882352F006
:10068000BB0F40F4BF2B11F460FF04C06F5F7F4FBE
:100690008F4F9F4F089557FD9058440F551F59F0A5
:1006A0005F3F71F04795880F97FB991F61F09F3F5F
:1006B00079F087950895121613061406551FF2CF88
:1006C0004695F1DF08C0161617061806991FF1CFD8
:1006D00086957105610508940895E894BB276627FF
:0C06E0007727CB0197F90895F894FFCF1D
:1006EC00000000000000005F00000007000700147D
:1006FC007F147F14242A7F2A12231308646236493C
:10070C005522500005030000001C2241000041222C
:10071C001C0014083E081408083E0808005030005D
:10072C000008080808080060600000201008040297
:10073C003E5149453E00427F4000426151494621AD
:10074C0041454B311814127F1027454545393C4A19
:10075C004949300171090503364949493606494969
:10076C00291E0036360000005636000008142241BF
:10077C000014141414140041221408020151090627
:10078C00324979413E7E1111117E7F494949363EED
:10079C00414141227F4141221C7F494949417F0906
:1007AC000909013E4149497A7F0808087F00417FC9
:1007BC0041002040413F017F081422417F404040CE
:1007CC00407F020C027F7F0408107F3E4141413E76
:1007DC007F090909063E4151215E7F0919294646C8
:1007EC004949493101017F01013F4040403F1F20F1
:1007FC0040201F3F4038403F6314081463070870C3
:10080C0008076151494543007F414100020408102B
:10081C00200041417F00040201020440404040405E
:10082C00000102040020545454787F484444383862
:10083C0044444420384444487F3854545418087E67
:10084C000901020C5252523E7F0804047800447D88
:10085C0040002040443D007F1028440000417F4070
:10086C00007C041804787C08040478384444443828
:10087C007C14141408081414187C7C08040408480C
:10088C0054545420043F4440203C4040207C1C20C5
:10089C0040201C3C4030403C44281028440C505014
:1008AC00503C4464544C44000836410000007F0026
:1008BC0000004136080010080810087846414678B8
:1008CC00313233343536373800414443444546479A
:0208DC0000001A
:00000001FF
