S00B00004144432E7372656351
S11300000C942A000C943F000C943F000C943F0085
S11300100C943F000C943F000C943F000C943F0060
S11300200C943F000C943F000C943F000C943F0050
S11300300C943F000C943F000C943F000C943F0040
S11300400C943F000C943F000C943F000C943F0030
S11300500C943F0011241FBECFE5D4E0DEBFCDBF1A
S113006010E0A0E6B0E0EEE5F2E002C005900D92EB
S1130070AC36B107D9F70E94D4000C942D010C942E
S1130080000098B39F70282F207F922B98BBC098B4
S1130090C19A32E03A95F1F700C0C198EFE8F1E077
S11300A03197F1F700C0000028B32F70F0E18F9F63
S11300B0C0011124822B88BBC19A32E03A95F1F732
S11300C000C0C1988FE99FE00197F1F700C00000DC
S11300D008958FEF87BB8FE39CE90197F1F700C088
S11300E0000083E30E94410082E30E94410088E211
S11300F00E9441008CE00E94410086E00E94410081
S113010081E00E944100089598B39F70282F207FBA
S1130110922B98BBC09AC19A32E03A95F1F700C08D
S1130120C198EFE8F1E03197F1F700C0000028B37F
S11301302F70F0E18F9FC0011124822B88BBC19ADC
S113014032E03A95F1F700C0C1988FE99FE001973A
S1130150F1F700C000000895CF93DF93EC0188818C
S1130160882331F021960E94840089918111FBCF6C
S1130170DF91CF9108951ABA87E886B980E487B9E8
S1130180089597B18F70982B97B9369A349BFECF08
S11301908AE18A95F1F700C024B185B190E0982FE7
S11301A08827820F911D0895CF93DF9300D000D04C
S11301B01F92CDB7DEB70E94BB000E94690080E6A3
S11301C090E00E94AC0087E80E94410080E00E9419
S11301D0C1004AE0BE016F5F7F4F0E94F800CE016C
S11301E001960E94AC0089E690E00E94AC00EBCF3F
S11301F0BB274A3031F4992322F4BDE290958195CE
S11302009F4F0C940401BB27FB015527AA27880F95
S1130210991FAA1FA41710F0A41B83955051B9F776
S1130220A05DAA3308F0A95DA193009779F7B111F5
S1130230B1931192CB010C941D01DC01FC01672FD9
S113024071917723E1F7329704C07C916D937083A9
S11102506291AE17BF07C8F30895F894FFCF6C
S10F025E4754204144433A200020200073
S9030000FC
