:100000000C942A000C9447000C9447000C94470071
:100010000C9447000C9447000C9447000C94470044
:100020000C9447000C9447000C9447000C94470034
:100030000C9447000C9447000C9447000C94470024
:100040000C9447000C9447000C9447000C94470014
:100050000C94470011241FBECFE5D4E0DEBFCDBF16
:1000600010E0A0E6B0E0E0E4F2E002C005900D92FE
:10007000AA36B107D9F720E0AAE6B0E001C01D9288
:10008000AC36B207E1F70E94EA000C941E010C9412
:1000900000000F931F93CF93DF93AC018C01169553
:1000A000079516950795169507959801A5ECB0E26A
:1000B0000E940F01FC01F295E295EF70EF27FF70AF
:1000C000EF2728EE33E0E29FC001E39F900DF29FFF
:1000D000900D1124FA01E81BF90BEF01D695C79595
:1000E000D695C7959E01ABE7B4E10E940F01AC0124
:1000F0005695479524E6249FC001259F900D112415
:10010000AF01481B590B12BA81E082BB9801A5ECE4
:10011000B0E20E940F01929582958F7089279F709F
:100120008927FC01E05AFF4F808185BB8FE99FE062
:100130000197F1F700C0000012BA82E082BB9E0175
:10014000ABE7B4E10E940F0196958795FC01E05A58
:10015000FF4F808185BBEFE9FFE03197F1F700C0E9
:10016000000012BA84E082BB9A01ADECBCEC0E94A4
:100170000F01969587959695879596958795FC019D
:10018000E05AFF4F208125BBEFE9FFE03197F1F7FF
:1001900000C0000012BA28E022BB9C01220F331FCE
:1001A000880F991F880F991F880F991F820F931F1F
:1001B000481B590BFA01E05AFF4F808185BB8FE93C
:1001C0009FE00197F1F700C00000DF91CF911F91F0
:1001D0000F9108958FEF84BB93E091BB85BB12BA5A
:1001E00010926B0010926A0080E090E00E9449003B
:1001F0002FEF81EE94E0215080409040E1F700C065
:10020000000080916A0090916B00019690936B00C2
:1002100080936A00883E23E0920714F7E7CFA29FFD
:10022000B001B39FC001A39F700D811D1124911DCA
:10023000B29F700D811D1124911D0895F894FFCF78
:0A024000C0F9A4B0999282F88090F2
:00000001FF
