S01100004C65644D61747269782E7372656389
S11300000C942A000C943F000C943F000C943F0085
S11300100C943F000C943F000C943F000C943F0060
S11300200C943F000C943F000C943F000C943F0050
S11300300C943F000C943F000C943F000C943F0040
S11300400C943F000C943F000C943F000C943F0030
S11300500C943F0011241FBECFE5D4E0DEBFCDBF1A
S113006010E0A0E6B0E0EAEDF0E002C005900D92E9
S1130070A037B107D9F70E9441000C946B000C948F
S113008000008FEF8ABB87BB809168008BBB809197
S11300906000809588BB8FE39FE10197F1F700C072
S11300A0000081E090E0FC01E859FF4F20812BBB68
S11300B0FC01E05AFF4F2081209528BBEFE3FFE1CC
S11300C03197F1F700C000000196883091055CF388
S10D00D080E090E0E8CFF894FFCF41
S11300DA0066667E7E666600010204081020401CE3
S9030000FC
