:100000000C942A000C9447000C9447000C94470071
:100010000C9447000C9447000C9447000C94470044
:100020000C9447000C9447000C9447000C94470034
:100030000C9447000C9447000C9447000C94470024
:100040000C9447000C9447000C9447000C94470014
:100050000C94470011241FBECFE5D4E0DEBFCDBF16
:1000600010E0A0E6B0E0E6E5FAE002C005900D92EF
:10007000AE3AB107D9F720E0AEEAB0E001C01D9278
:10008000AC3BB207E1F70E9472010C9429050C9475
:10009000000098B39F70282F207F922B98BBC098A8
:1000A000C19A32E03A95F1F700C0C198EFE8F1E06B
:1000B0003197F1F700C0000028B32F70F0E18F9F57
:1000C000C0011124822B88BBC19A32E03A95F1F726
:1000D00000C0C1988FE99FE00197F1F700C00000D0
:1000E000089598B39F70282F207F922B98BBC09AB9
:1000F000C19A32E03A95F1F700C0C198EFE8F1E01B
:100100003197F1F700C0000028B32F70F0E18F9F06
:10011000C0011124822B88BBC19A32E03A95F1F7D5
:1001200000C0C1988FE99FE00197F1F700C000007F
:1001300008958FEF87BB8FE39CE90197F1F700C02B
:10014000000082E00E94490088E20E9449008CE0A1
:100150000E94490086E00E94490081E00E94490017
:100160008FE99FE00197F1F700C000000895CF9359
:10017000DF93EC018881882331F021960E94710081
:1001800089918111FBCFDF91CF91089511B880E261
:1001900080B9089594EA96BF06B607FEFDCF91B1E7
:1001A000987F983071F483B984E886BF06B607FE5D
:1001B000FDCF81B1887F883131F0803231F083E02A
:1001C000089580E0089581E0089582E0089594EA1A
:1001D00096BF06B607FEFDCF91B1987F903161F4CE
:1001E00083B906B607FEFDCF81B1887F803431F038
:1001F000883431F083E0089580E0089581E0089527
:1002000082E0089583B984E886BF06B607FEFDCF75
:1002100081B1887F883221F0803321F082E0089517
:1002200080E0089581E0089584EC86BF06B607FE5D
:10023000FDCF83B190E0089584E886BF06B607FE3F
:10024000FDCF83B190E0089584E986BF06B604FC33
:10025000FDCF0895CF93C82F80ED0E94CA008C2F48
:100260000E94020181ED0E94E7000E941401909318
:10027000BB008093BA000E9414019093B900809350
:10028000B8000E941C019093B7008093B6000E94B2
:100290002401CF910895CF93C82F80ED0E94CA000A
:1002A0008C2F0E94020181ED0E94E7000E94140140
:1002B0009093B5008093B4000E9414019093B30012
:1002C0008093B2000E9414019093B1008093B0001B
:1002D0000E941C019093AF008093AE000E94240105
:1002E000CF910895CF93DF93CDB7DEB7A2970FB626
:1002F000F894DEBF0FBECDBF8EE0E0E6F0E0DE0199
:10030000559601900D928A95E1F70E94C6000E94D1
:1003100099000F2EFEE6CF2EF0E0DF2EF02D8E019D
:100320000F5F1F4F0F2EF6EBAF2EF0E0BF2EF02D1C
:100330000F2EF4E58F2EFFE69F2EF02D0F2EF9E6FF
:100340006F2E712CF02D0F2EF4E8EF2EF0E0FF2E23
:10035000F02D80E00E942A018091B6009091B700B4
:1003600086FF3AC02091BB002F932091BA002F93B3
:100370002091B9002F932091B8002F939F938F93D2
:10038000DF92CF921F930F930E943F02F50180816D
:100390000FB6F894DEBF0FBECDBF85FF0AC0F801CF
:1003A00001900020E9F73197918280827382628206
:1003B0000CC0D8010D900020E9F7119785E0EFE718
:1003C000F0E001900D928A95E1F780E80E944900E3
:1003D000C8010E94B7001FC02091BB002F9320913D
:1003E000BA002F932091B9002F932091B8002F933A
:1003F0009F938F93DF92CF921F930F930E943F02A0
:1004000080E80E944900C8010E94B7000FB6F89426
:10041000DEBF0FBECDBF83E00E944B01E091B40070
:10042000F091B5003197EE0FFF1FE00FF11F8589A6
:100430008F9384898F938091AF008F938091AE00CA
:100440008F938091B1008F938091B0008F938091B2
:10045000B3008F938091B2008F93FF92EF921F931E
:100460000F930E943F0280EC0E944900C8010E9445
:10047000B7000FB6F894DEBF0FBECDBF6ACFAEE0B7
:10048000B0E0E5E4F2E00C9400050D891E8986E0F9
:100490008C831A8309838FEF9FE79E838D83AE0140
:1004A000475E5F4F6F89788DCE0101960E94610291
:1004B000EF81F885E00FF11F10822E96E4E00C9496
:1004C0001C05ABE0B0E0E7E6F2E00C94F2046C014E
:1004D0007B018A01FC0117821682838181FFCCC1D6
:1004E000CE0101963C01F6019381F70193FD8591C0
:1004F00093FF81917F01882309F4BAC1853239F4D1
:1005000093FD859193FF81917F01853229F4B60196
:1005100090E00E945804E7CF912C212C312CFFE170
:10052000F315D8F08B3279F038F4803279F08332D9
:10053000A1F4232D20611DC08D3261F0803369F458
:10054000232D216016C0832D8260382EE32DE460B8
:100550003E2E2AC0F32DF8601DC037FC2DC020EDC3
:10056000280F2A3040F08E32B9F436FC81C1232D99
:100570002064322E19C036FE06C08AE0989E200DF7
:100580001124922E11C0EAE02E9E200D1124222E5D
:10059000F32DF0623F2E08C08C3621F4832D806845
:1005A000382E02C0883641F4F70193FD859193FF00
:1005B00081917F018111B3CF982F9F7D9554933006
:1005C00028F40C5F1F4F9FE399830DC0833631F0F1
:1005D000833771F0833509F059C021C0F80180815B
:1005E00089830E5F1F4F88248394912C530113C07D
:1005F0002801F2E04F0E511CF801A080B18036FEB8
:1006000003C0692D70E002C06FEF7FEFC5010E944B
:100610004D044C018201F32DFF773F2E16C02801B7
:1006200022E0420E511CF801A080B18036FE03C0CA
:10063000692D70E002C06FEF7FEFC5010E94420498
:100640004C01F32DF0683F2E820133FC1BC0822D3C
:1006500090E088169906B0F4B60180E290E00E941E
:1006600058042A94F4CFF50137FC859137FE819127
:100670005F01B60190E00E94580421102A9421E005
:10068000821A91088114910471F7E8C0843611F040
:10069000893641F5F80137FE07C06081718182819A
:1006A00093810C5F1F4F08C060817181072E000C81
:1006B000880B990B0E5F1F4FF32DFF763F2E97FF90
:1006C00009C090958095709561957F4F8F4F9F4F92
:1006D000F0683F2E2AE030E0A3010E949404882EA7
:1006E000861845C0853731F4232D2F7EB22E2AE09F
:1006F00030E025C0932D997FB92E8F36C1F018F4C4
:10070000883579F0B5C0803719F0883721F0B0C04E
:10071000E92FE061BE2EB4FE0DC0FB2DF460BF2EAC
:1007200009C034FE0AC0292F2660B22E06C028E078
:1007300030E005C020E130E002C020E132E0F80105
:10074000B7FE07C060817181828193810C5F1F4F6A
:1007500006C06081718180E090E00E5F1F4FA301B1
:100760000E949404882E8618FB2DFF773F2E36FEBC
:100770000DC0232D2E7FA22E891458F434FE0BC0F9
:1007800032FC09C0832D8E7EA82E05C0B82CA32C68
:1007900003C0B82C01C0B92CA4FE0FC0FE01E80DA7
:1007A000F11D8081803321F49A2D997EA92E09C0F4
:1007B000A2FE06C0B394B39404C08A2D867809F0D3
:1007C000B394A3FC11C0A0FE06C0B21488F4280C98
:1007D000922C9B180EC0B21460F4B60180E290E037
:1007E0000E945804B394F7CFB21418F42B1802C027
:1007F000982C212CA4FE10C0B60180E390E00E944A
:100800005804A2FE17C0A1FC03C088E790E002C014
:1008100088E590E0B6010CC08A2D867859F0A1FEDB
:1008200002C08BE201C080E2A7FC8DE2B60190E03D
:100830000E945804891438F4B60180E390E00E94C5
:1008400058049A94F7CF8A94F301E80DF11D808142
:10085000B60190E00E9458048110F5CF222009F4DF
:1008600042CEB60180E290E00E9458042A94F6CF6E
:10087000F6018681978102C08FEF9FEF2B96E2E110
:100880000C940E05FC010590615070400110D8F7E2
:10089000809590958E0F9F1F0895FC0161507040C8
:1008A00001900110D8F7809590958E0F9F1F0895A5
:1008B0000F931F93CF93DF93FB01238121FD03C08F
:1008C0008FEF9FEF2CC022FF16C0468157812481F5
:1008D00035814217530744F4A081B1819D012F5FF8
:1008E0003F4F318320838C93268137812F5F3F4F89
:1008F0003783268314C08B01EC01FB010084F18552
:10090000E02D0995892BE1F6D80116968D919C91E1
:100910001797019617969C938E931697CE01DF91A9
:10092000CF911F910F910895FA01AA27283051F114
:10093000203181F1E8946F936E7F6E5F7F4F8F4F10
:100940009F4FAF4FB1E03ED0B4E03CD0670F781F6F
:10095000891F9A1FA11D680F791F8A1F911DA11D54
:100960006A0F711D811D911DA11D20D009F468948D
:100970003F912AE0269F11243019305D3193DEF635
:10098000CF010895462F4770405D4193B3E00FD0EB
:10099000C9F7F6CF462F4F70405D4A3318F0495DD6
:1009A00031FD4052419302D0A9F7EACFB4E0A695B9
:1009B0009795879577956795BA95C9F700976105DB
:1009C000710508959B01AC010A2E06945795479531
:1009D00037952795BA95C9F7620F731F841F951F26
:1009E000A01D08952F923F924F925F926F927F9237
:1009F0008F929F92AF92BF92CF92DF92EF92FF922F
:100A00000F931F93CF93DF93CDB7DEB7CA1BDB0BDA
:100A10000FB6F894DEBF0FBECDBF09942A8839887F
:100A200048885F846E847D848C849B84AA84B98486
:100A3000C884DF80EE80FD800C811B81AA81B98192
:100A4000CE0FD11D0FB6F894DEBF0FBECDBFED01A6
:060A50000895F894FFCFA9
:100A560098009B009E00A100A400A700AA002530D4
:100A660032783A253032783A2530327820200053D1
:100A7600616E6700253032782F253032782F253089
:100A86003278202533732000434E0054320054330D
:0E0A960000543400543500543600543700002C
:00000001FF
