S00C0000537465702E737265637C
S11300000C942A000C9434000C9434000C943400A6
S11300100C9434000C9434000C9434000C9434008C
S11300200C9434000C9434000C9434000C9434007C
S11300300C9434000C9434000C9434000C9434006C
S11300400C9434000C9434000C9434000C9434005C
S11300500C94340011241FBECFE5D4E0DEBFCDBF25
S11300600E9436000C94BD000C9400008FE087BB06
S113007036E072E023E061E049E05CE08CE090E08F
S113008038BBAFEFE0E7F2E0A150E040F040E1F729
S113009000C0000078BBAFEFE0E7F2E0A150E04021
S11300A0F040E1F700C0000028BBAFEFE0E7F2E06A
S11300B0A150E040F040E1F700C0000068BBAFEFA2
S11300C0E0E7F2E0A150E040F040E1F700C00000BA
S11300D00197B1F648BB8FEF90E7A2E081509040C2
S11300E0A040E1F700C00000EFEFF9E688E1E1503D
S11300F0F0408040E1F700C000008CE090E048BB95
S1130100AFEFE0E7F2E0A150E040F040E1F700C0DB
S1130110000028BBAFEFE0E7F2E0A150E040F04080
S1130120E1F700C0000038BBAFEFE0E7F2E0A15018
S1130130E040F040E1F700C0000058BBAFEFE0E75B
S1130140F2E0A150E040F040E1F700C00000019768
S1130150B1F648BB8FEF90E7A2E081509040A040F9
S1130160E1F700C00000EFEFF9E688E1E150F0406C
S11101708040E1F700C0000081CFF894FFCF7B
S9030000FC
