S01000004C43445F346269742E737265636F
S11300000C942A000C943F000C943F000C943F0085
S11300100C943F000C943F000C943F000C943F0060
S11300200C943F000C943F000C943F000C943F0050
S11300300C943F000C943F000C943F000C943F0040
S11300400C943F000C943F000C943F000C943F0030
S11300500C943F0011241FBECFE5D4E0DEBFCDBF1A
S113006010E0A0E6B0E0ECE9F1E002C005900D92EA
S1130070A037B107D9F70E94BE000C94CC000C94B1
S1130080000098B39F70282F207F922B98BBC098B4
S1130090C19A32E03A95F1F700C0C198EFE8F1E077
S11300A03197F1F700C0000028B32F70F0E18F9F63
S11300B0C0011124822B88BBC19A32E03A95F1F732
S11300C000C0C1988FE99FE00197F1F700C00000DC
S11300D0089598B39F70282F207F922B98BBC09AC5
S11300E0C19A32E03A95F1F700C0C198EFE8F1E027
S11300F03197F1F700C0000028B32F70F0E18F9F13
S1130100C0011124822B88BBC19A32E03A95F1F7E1
S113011000C0C1988FE99FE00197F1F700C000008B
S113012008958FEF87BB8FE39CE90197F1F700C037
S1130130000082E00E94410088E20E9441008CE0BD
S11301400E94410086E00E94410081E00E9441003B
S11301508FE99FE00197F1F700C000000895CF9365
S1130160DF93EC018881882331F021960E94690095
S113017089918111FBCFDF91CF9108950E94910065
S113018080E690E00E94AF0080EC0E94410089E686
S10F019090E00E94AF00FFCFF894FFCF76
S113019C58696E206368616F003132333435360030
S9030000FC
